{
  "_format": "hh-sol-artifact-1",
  "contractName": "TokenSwap",
  "sourceName": "contracts/OrderBasedSwapContract.sol",
  "abi": [
    {
      "anonymous": false,
      "inputs": [
        {
          "indexed": true,
          "internalType": "uint256",
          "name": "orderId",
          "type": "uint256"
        },
        {
          "indexed": true,
          "internalType": "address",
          "name": "depositor",
          "type": "address"
        },
        {
          "indexed": false,
          "internalType": "address",
          "name": "depositToken",
          "type": "address"
        },
        {
          "indexed": false,
          "internalType": "uint256",
          "name": "depositAmount",
          "type": "uint256"
        }
      ],
      "name": "OrderCancelled",
      "type": "event"
    },
    {
      "anonymous": false,
      "inputs": [
        {
          "indexed": true,
          "internalType": "uint256",
          "name": "orderId",
          "type": "uint256"
        },
        {
          "indexed": true,
          "internalType": "address",
          "name": "depositor",
          "type": "address"
        },
        {
          "indexed": false,
          "internalType": "address",
          "name": "depositToken",
          "type": "address"
        },
        {
          "indexed": false,
          "internalType": "uint256",
          "name": "depositAmount",
          "type": "uint256"
        },
        {
          "indexed": false,
          "internalType": "address",
          "name": "desiredToken",
          "type": "address"
        },
        {
          "indexed": false,
          "internalType": "uint256",
          "name": "desiredAmount",
          "type": "uint256"
        }
      ],
      "name": "OrderCreated",
      "type": "event"
    },
    {
      "anonymous": false,
      "inputs": [
        {
          "indexed": true,
          "internalType": "uint256",
          "name": "orderId",
          "type": "uint256"
        },
        {
          "indexed": true,
          "internalType": "address",
          "name": "buyer",
          "type": "address"
        },
        {
          "indexed": false,
          "internalType": "address",
          "name": "depositToken",
          "type": "address"
        },
        {
          "indexed": false,
          "internalType": "uint256",
          "name": "depositAmount",
          "type": "uint256"
        },
        {
          "indexed": false,
          "internalType": "address",
          "name": "desiredToken",
          "type": "address"
        },
        {
          "indexed": false,
          "internalType": "uint256",
          "name": "desiredAmount",
          "type": "uint256"
        }
      ],
      "name": "OrderFulfilled",
      "type": "event"
    },
    {
      "inputs": [],
      "name": "DAI",
      "outputs": [
        {
          "internalType": "address",
          "name": "",
          "type": "address"
        }
      ],
      "stateMutability": "view",
      "type": "function"
    },
    {
      "inputs": [],
      "name": "LINK",
      "outputs": [
        {
          "internalType": "address",
          "name": "",
          "type": "address"
        }
      ],
      "stateMutability": "view",
      "type": "function"
    },
    {
      "inputs": [],
      "name": "UNI",
      "outputs": [
        {
          "internalType": "address",
          "name": "",
          "type": "address"
        }
      ],
      "stateMutability": "view",
      "type": "function"
    },
    {
      "inputs": [],
      "name": "USDC",
      "outputs": [
        {
          "internalType": "address",
          "name": "",
          "type": "address"
        }
      ],
      "stateMutability": "view",
      "type": "function"
    },
    {
      "inputs": [
        {
          "internalType": "uint256",
          "name": "orderId",
          "type": "uint256"
        }
      ],
      "name": "cancelOrder",
      "outputs": [],
      "stateMutability": "nonpayable",
      "type": "function"
    },
    {
      "inputs": [
        {
          "internalType": "address",
          "name": "_depositToken",
          "type": "address"
        },
        {
          "internalType": "uint256",
          "name": "_depositAmount",
          "type": "uint256"
        },
        {
          "internalType": "address",
          "name": "_desiredToken",
          "type": "address"
        },
        {
          "internalType": "uint256",
          "name": "_desiredAmount",
          "type": "uint256"
        },
        {
          "internalType": "uint256",
          "name": "_duration",
          "type": "uint256"
        }
      ],
      "name": "createOrder",
      "outputs": [],
      "stateMutability": "nonpayable",
      "type": "function"
    },
    {
      "inputs": [
        {
          "internalType": "uint256",
          "name": "orderId",
          "type": "uint256"
        }
      ],
      "name": "fulfillOrder",
      "outputs": [],
      "stateMutability": "nonpayable",
      "type": "function"
    },
    {
      "inputs": [
        {
          "internalType": "address",
          "name": "user",
          "type": "address"
        }
      ],
      "name": "getDAIBalance",
      "outputs": [
        {
          "internalType": "uint256",
          "name": "",
          "type": "uint256"
        }
      ],
      "stateMutability": "view",
      "type": "function"
    },
    {
      "inputs": [
        {
          "internalType": "address",
          "name": "user",
          "type": "address"
        }
      ],
      "name": "getLINKBalance",
      "outputs": [
        {
          "internalType": "uint256",
          "name": "",
          "type": "uint256"
        }
      ],
      "stateMutability": "view",
      "type": "function"
    },
    {
      "inputs": [],
      "name": "getOpenOrders",
      "outputs": [
        {
          "components": [
            {
              "internalType": "address",
              "name": "depositor",
              "type": "address"
            },
            {
              "internalType": "address",
              "name": "depositToken",
              "type": "address"
            },
            {
              "internalType": "uint256",
              "name": "depositAmount",
              "type": "uint256"
            },
            {
              "internalType": "address",
              "name": "desiredToken",
              "type": "address"
            },
            {
              "internalType": "uint256",
              "name": "desiredAmount",
              "type": "uint256"
            },
            {
              "internalType": "bool",
              "name": "isCompleted",
              "type": "bool"
            },
            {
              "internalType": "uint256",
              "name": "expirationTime",
              "type": "uint256"
            }
          ],
          "internalType": "struct TokenSwap.Order[]",
          "name": "",
          "type": "tuple[]"
        }
      ],
      "stateMutability": "view",
      "type": "function"
    },
    {
      "inputs": [
        {
          "internalType": "address",
          "name": "user",
          "type": "address"
        }
      ],
      "name": "getUNICBalance",
      "outputs": [
        {
          "internalType": "uint256",
          "name": "",
          "type": "uint256"
        }
      ],
      "stateMutability": "view",
      "type": "function"
    },
    {
      "inputs": [
        {
          "internalType": "address",
          "name": "user",
          "type": "address"
        }
      ],
      "name": "getUSDCBalance",
      "outputs": [
        {
          "internalType": "uint256",
          "name": "",
          "type": "uint256"
        }
      ],
      "stateMutability": "view",
      "type": "function"
    },
    {
      "inputs": [],
      "name": "orderCount",
      "outputs": [
        {
          "internalType": "uint256",
          "name": "",
          "type": "uint256"
        }
      ],
      "stateMutability": "view",
      "type": "function"
    },
    {
      "inputs": [],
      "name": "orderCounter",
      "outputs": [
        {
          "internalType": "uint256",
          "name": "",
          "type": "uint256"
        }
      ],
      "stateMutability": "view",
      "type": "function"
    },
    {
      "inputs": [
        {
          "internalType": "uint256",
          "name": "",
          "type": "uint256"
        }
      ],
      "name": "orders",
      "outputs": [
        {
          "internalType": "address",
          "name": "depositor",
          "type": "address"
        },
        {
          "internalType": "address",
          "name": "depositToken",
          "type": "address"
        },
        {
          "internalType": "uint256",
          "name": "depositAmount",
          "type": "uint256"
        },
        {
          "internalType": "address",
          "name": "desiredToken",
          "type": "address"
        },
        {
          "internalType": "uint256",
          "name": "desiredAmount",
          "type": "uint256"
        },
        {
          "internalType": "bool",
          "name": "isCompleted",
          "type": "bool"
        },
        {
          "internalType": "uint256",
          "name": "expirationTime",
          "type": "uint256"
        }
      ],
      "stateMutability": "view",
      "type": "function"
    },
    {
      "inputs": [
        {
          "internalType": "address",
          "name": "recipient",
          "type": "address"
        },
        {
          "internalType": "uint256",
          "name": "amount",
          "type": "uint256"
        }
      ],
      "name": "transferDAI",
      "outputs": [],
      "stateMutability": "nonpayable",
      "type": "function"
    },
    {
      "inputs": [
        {
          "internalType": "address",
          "name": "recipient",
          "type": "address"
        },
        {
          "internalType": "uint256",
          "name": "amount",
          "type": "uint256"
        }
      ],
      "name": "transferLINK",
      "outputs": [],
      "stateMutability": "nonpayable",
      "type": "function"
    },
    {
      "inputs": [
        {
          "internalType": "address",
          "name": "recipient",
          "type": "address"
        },
        {
          "internalType": "uint256",
          "name": "amount",
          "type": "uint256"
        }
      ],
      "name": "transferUNI",
      "outputs": [],
      "stateMutability": "nonpayable",
      "type": "function"
    },
    {
      "inputs": [
        {
          "internalType": "address",
          "name": "recipient",
          "type": "address"
        },
        {
          "internalType": "uint256",
          "name": "amount",
          "type": "uint256"
        }
      ],
      "name": "transferUSDC",
      "outputs": [],
      "stateMutability": "nonpayable",
      "type": "function"
    }
  ],
  "bytecode": "0x608060405234801561001057600080fd5b50612cd2806100206000396000f3fe608060405234801561001057600080fd5b50600436106101215760003560e01c806389a30271116100ad578063bc27958111610071578063bc2795811461030e578063dbe5bab51461032a578063e0bab4c414610348578063e458cca514610366578063f7aaaf3f1461039657610121565b806389a30271146102505780638d36de211461026e57806396d4f6401461029e578063a85c38ef146102ba578063b789bf52146102f057610121565b8063541bcb76116100f4578063541bcb76146101ae5780635cd9b90b146101cc5780636311e830146101e8578063680247171461020457806379796d3b1461023457610121565b80631b6b6d23146101265780632453ffa81461014457806324cc246a14610162578063514fcac714610192575b600080fd5b61012e6103b2565b60405161013b9190611c50565b60405180910390f35b61014c6103ca565b6040516101599190611c84565b60405180910390f35b61017c60048036038101906101779190611cd0565b6103d0565b6040516101899190611c84565b60405180910390f35b6101ac60048036038101906101a79190611d29565b61046c565b005b6101b6610773565b6040516101c39190611c50565b60405180910390f35b6101e660048036038101906101e19190611d56565b61078b565b005b61020260048036038101906101fd9190611d29565b610828565b005b61021e60048036038101906102199190611cd0565b610e3c565b60405161022b9190611c84565b60405180910390f35b61024e60048036038101906102499190611d56565b610ed8565b005b610258610f75565b6040516102659190611c50565b60405180910390f35b61028860048036038101906102839190611cd0565b610f8d565b6040516102959190611c84565b60405180910390f35b6102b860048036038101906102b39190611d96565b611029565b005b6102d460048036038101906102cf9190611d29565b61165c565b6040516102e79796959493929190611e2c565b60405180910390f35b6102f861170b565b6040516103059190611c84565b60405180910390f35b61032860048036038101906103239190611d56565b611711565b005b6103326117ae565b60405161033f9190612005565b60405180910390f35b610350611a3d565b60405161035d9190611c50565b60405180910390f35b610380600480360381019061037b9190611cd0565b611a55565b60405161038d9190611c84565b60405180910390f35b6103b060048036038101906103ab9190611d56565b611af1565b005b73514910771af9ca656af840dff83e8264ecf986ca81565b60015481565b600080736b175474e89094c44da98b954eedeac495271d0f90508073ffffffffffffffffffffffffffffffffffffffff166370a08231846040518263ffffffff1660e01b81526004016104239190611c50565b602060405180830381865afa158015610440573d6000803e3d6000fd5b505050506040513d601f19601f82011682018060405250810190610464919061203c565b915050919050565b600080600083815260200190815260200160002090508060050160009054906101000a900460ff16156104d4576040517f08c379a00000000000000000000000000000000000000000000000000000000081526004016104cb906120ec565b60405180910390fd5b8060060154421161051a576040517f08c379a000000000000000000000000000000000000000000000000000000000815260040161051190612158565b60405180910390fd5b3373ffffffffffffffffffffffffffffffffffffffff168160000160009054906101000a900473ffffffffffffffffffffffffffffffffffffffff1673ffffffffffffffffffffffffffffffffffffffff16146105ac576040517f08c379a00000000000000000000000000000000000000000000000000000000081526004016105a3906121ea565b60405180910390fd5b8060010160009054906101000a900473ffffffffffffffffffffffffffffffffffffffff1673ffffffffffffffffffffffffffffffffffffffff1663a9059cbb8260000160009054906101000a900473ffffffffffffffffffffffffffffffffffffffff1683600201546040518363ffffffff1660e01b815260040161063392919061220a565b6020604051808303816000875af1158015610652573d6000803e3d6000fd5b505050506040513d601f19601f82011682018060405250810190610676919061225f565b6106b5576040517f08c379a00000000000000000000000000000000000000000000000000000000081526004016106ac906122d8565b60405180910390fd5b60018160050160006101000a81548160ff0219169083151502179055508060000160009054906101000a900473ffffffffffffffffffffffffffffffffffffffff1673ffffffffffffffffffffffffffffffffffffffff16827fa4bb54ffb7bcc3eb7bdd81e41ad340b367a9b3a7416cd7764e68713a274c9da38360010160009054906101000a900473ffffffffffffffffffffffffffffffffffffffff16846002015460405161076792919061220a565b60405180910390a35050565b731f9840a85d5af5bf1d1762f925bdaddc4201f98481565b600073a0b86991c6218b36c1d19d4a2e9eb0ce3606eb4890508073ffffffffffffffffffffffffffffffffffffffff1663a9059cbb84846040518363ffffffff1660e01b81526004016107df92919061220a565b6020604051808303816000875af11580156107fe573d6000803e3d6000fd5b505050506040513d601f19601f82011682018060405250810190610822919061225f565b50505050565b600080600083815260200190815260200160002090508060050160009054906101000a900460ff1615610890576040517f08c379a000000000000000000000000000000000000000000000000000000000815260040161088790612344565b60405180910390fd5b80600601544211156108d7576040517f08c379a00000000000000000000000000000000000000000000000000000000081526004016108ce906123b0565b60405180910390fd5b80600401548160030160009054906101000a900473ffffffffffffffffffffffffffffffffffffffff1673ffffffffffffffffffffffffffffffffffffffff1663dd62ed3e33306040518363ffffffff1660e01b815260040161093b9291906123d0565b602060405180830381865afa158015610958573d6000803e3d6000fd5b505050506040513d601f19601f8201168201806040525081019061097c919061203c565b10156109bd576040517f08c379a00000000000000000000000000000000000000000000000000000000081526004016109b49061246b565b60405180910390fd5b80600401548160030160009054906101000a900473ffffffffffffffffffffffffffffffffffffffff1673ffffffffffffffffffffffffffffffffffffffff166370a08231336040518263ffffffff1660e01b8152600401610a1f9190611c50565b602060405180830381865afa158015610a3c573d6000803e3d6000fd5b505050506040513d601f19601f82011682018060405250810190610a60919061203c565b1015610aa1576040517f08c379a0000000000000000000000000000000000000000000000000000000008152600401610a98906124fd565b60405180910390fd5b8060030160009054906101000a900473ffffffffffffffffffffffffffffffffffffffff1673ffffffffffffffffffffffffffffffffffffffff166323b872dd333084600401546040518463ffffffff1660e01b8152600401610b069392919061251d565b6020604051808303816000875af1158015610b25573d6000803e3d6000fd5b505050506040513d601f19601f82011682018060405250810190610b49919061225f565b610b88576040517f08c379a0000000000000000000000000000000000000000000000000000000008152600401610b7f906125c6565b60405180910390fd5b8060010160009054906101000a900473ffffffffffffffffffffffffffffffffffffffff1673ffffffffffffffffffffffffffffffffffffffff1663a9059cbb3383600201546040518363ffffffff1660e01b8152600401610beb92919061220a565b6020604051808303816000875af1158015610c0a573d6000803e3d6000fd5b505050506040513d601f19601f82011682018060405250810190610c2e919061225f565b610c6d576040517f08c379a0000000000000000000000000000000000000000000000000000000008152600401610c6490612658565b60405180910390fd5b8060030160009054906101000a900473ffffffffffffffffffffffffffffffffffffffff1673ffffffffffffffffffffffffffffffffffffffff1663a9059cbb8260000160009054906101000a900473ffffffffffffffffffffffffffffffffffffffff1683600401546040518363ffffffff1660e01b8152600401610cf492919061220a565b6020604051808303816000875af1158015610d13573d6000803e3d6000fd5b505050506040513d601f19601f82011682018060405250810190610d37919061225f565b610d76576040517f08c379a0000000000000000000000000000000000000000000000000000000008152600401610d6d906126ea565b60405180910390fd5b60018160050160006101000a81548160ff0219169083151502179055503373ffffffffffffffffffffffffffffffffffffffff16827f22a9b9372c4e84001d05da7da9ac582cdb7d9e02cb70b8382b580f05293e1eba8360010160009054906101000a900473ffffffffffffffffffffffffffffffffffffffff1684600201548560030160009054906101000a900473ffffffffffffffffffffffffffffffffffffffff168660040154604051610e30949392919061270a565b60405180910390a35050565b60008073a0b86991c6218b36c1d19d4a2e9eb0ce3606eb4890508073ffffffffffffffffffffffffffffffffffffffff166370a08231846040518263ffffffff1660e01b8152600401610e8f9190611c50565b602060405180830381865afa158015610eac573d6000803e3d6000fd5b505050506040513d601f19601f82011682018060405250810190610ed0919061203c565b915050919050565b6000736b175474e89094c44da98b954eedeac495271d0f90508073ffffffffffffffffffffffffffffffffffffffff1663a9059cbb84846040518363ffffffff1660e01b8152600401610f2c92919061220a565b6020604051808303816000875af1158015610f4b573d6000803e3d6000fd5b505050506040513d601f19601f82011682018060405250810190610f6f919061225f565b50505050565b73a0b86991c6218b36c1d19d4a2e9eb0ce3606eb4881565b600080736b175474e89094c44da98b954eedeac495271d0f90508073ffffffffffffffffffffffffffffffffffffffff166370a08231846040518263ffffffff1660e01b8152600401610fe09190611c50565b602060405180830381865afa158015610ffd573d6000803e3d6000fd5b505050506040513d601f19601f82011682018060405250810190611021919061203c565b915050919050565b6000821161106c576040517f08c379a0000000000000000000000000000000000000000000000000000000008152600401611063906127c1565b60405180910390fd5b600084116110af576040517f08c379a00000000000000000000000000000000000000000000000000000000081526004016110a690612853565b60405180910390fd5b600073ffffffffffffffffffffffffffffffffffffffff168573ffffffffffffffffffffffffffffffffffffffff160361111e576040517f08c379a0000000000000000000000000000000000000000000000000000000008152600401611115906128e5565b60405180910390fd5b600073ffffffffffffffffffffffffffffffffffffffff168373ffffffffffffffffffffffffffffffffffffffff160361118d576040517f08c379a000000000000000000000000000000000000000000000000000000000815260040161118490612977565b60405180910390fd5b8273ffffffffffffffffffffffffffffffffffffffff168573ffffffffffffffffffffffffffffffffffffffff16036111fb576040517f08c379a00000000000000000000000000000000000000000000000000000000081526004016111f290612a09565b60405180910390fd5b838573ffffffffffffffffffffffffffffffffffffffff166370a08231336040518263ffffffff1660e01b81526004016112359190611c50565b602060405180830381865afa158015611252573d6000803e3d6000fd5b505050506040513d601f19601f82011682018060405250810190611276919061203c565b10156112b7576040517f08c379a00000000000000000000000000000000000000000000000000000000081526004016112ae90612a75565b60405180910390fd5b838573ffffffffffffffffffffffffffffffffffffffff1663dd62ed3e33306040518363ffffffff1660e01b81526004016112f39291906123d0565b602060405180830381865afa158015611310573d6000803e3d6000fd5b505050506040513d601f19601f82011682018060405250810190611334919061203c565b1015611375576040517f08c379a000000000000000000000000000000000000000000000000000000000815260040161136c90612ae1565b60405180910390fd5b600081116113b8576040517f08c379a00000000000000000000000000000000000000000000000000000000081526004016113af90612b73565b60405180910390fd5b8473ffffffffffffffffffffffffffffffffffffffff166323b872dd3330876040518463ffffffff1660e01b81526004016113f59392919061251d565b6020604051808303816000875af1158015611414573d6000803e3d6000fd5b505050506040513d601f19601f82011682018060405250810190611438919061225f565b506001600081548092919061144c90612bc2565b91905055506040518060e001604052803373ffffffffffffffffffffffffffffffffffffffff1681526020018673ffffffffffffffffffffffffffffffffffffffff1681526020018581526020018473ffffffffffffffffffffffffffffffffffffffff16815260200183815260200160001515815260200182426114d19190612c0a565b815250600080600154815260200190815260200160002060008201518160000160006101000a81548173ffffffffffffffffffffffffffffffffffffffff021916908373ffffffffffffffffffffffffffffffffffffffff16021790555060208201518160010160006101000a81548173ffffffffffffffffffffffffffffffffffffffff021916908373ffffffffffffffffffffffffffffffffffffffff1602179055506040820151816002015560608201518160030160006101000a81548173ffffffffffffffffffffffffffffffffffffffff021916908373ffffffffffffffffffffffffffffffffffffffff1602179055506080820151816004015560a08201518160050160006101000a81548160ff02191690831515021790555060c082015181600601559050503373ffffffffffffffffffffffffffffffffffffffff166001547f87fe93d79d983fe0c58212e2b0ffef6a47b3d30067aae73d04d7136301ac32d28787878760405161164d949392919061270a565b60405180910390a35050505050565b60006020528060005260406000206000915090508060000160009054906101000a900473ffffffffffffffffffffffffffffffffffffffff16908060010160009054906101000a900473ffffffffffffffffffffffffffffffffffffffff16908060020154908060030160009054906101000a900473ffffffffffffffffffffffffffffffffffffffff16908060040154908060050160009054906101000a900460ff16908060060154905087565b60025481565b6000736b175474e89094c44da98b954eedeac495271d0f90508073ffffffffffffffffffffffffffffffffffffffff1663a9059cbb84846040518363ffffffff1660e01b815260040161176592919061220a565b6020604051808303816000875af1158015611784573d6000803e3d6000fd5b505050506040513d601f19601f820116820180604052508101906117a8919061225f565b50505050565b6060600080600190505b600154811161180a5760008082815260200190815260200160002060050160009054906101000a900460ff166117f75781806117f390612bc2565b9250505b808061180290612bc2565b9150506117b8565b5060008167ffffffffffffffff81111561182757611826612c3e565b5b60405190808252806020026020018201604052801561186057816020015b61184d611b8e565b8152602001906001900390816118455790505b509050600080600190505b6001548111611a335760008082815260200190815260200160002060050160009054906101000a900460ff16611a20576000808281526020019081526020016000206040518060e00160405290816000820160009054906101000a900473ffffffffffffffffffffffffffffffffffffffff1673ffffffffffffffffffffffffffffffffffffffff1673ffffffffffffffffffffffffffffffffffffffff1681526020016001820160009054906101000a900473ffffffffffffffffffffffffffffffffffffffff1673ffffffffffffffffffffffffffffffffffffffff1673ffffffffffffffffffffffffffffffffffffffff168152602001600282015481526020016003820160009054906101000a900473ffffffffffffffffffffffffffffffffffffffff1673ffffffffffffffffffffffffffffffffffffffff1673ffffffffffffffffffffffffffffffffffffffff168152602001600482015481526020016005820160009054906101000a900460ff16151515158152602001600682015481525050838381518110611a0657611a05612c6d565b5b60200260200101819052508180611a1c90612bc2565b9250505b8080611a2b90612bc2565b91505061186b565b5081935050505090565b736b175474e89094c44da98b954eedeac495271d0f81565b60008073a0b86991c6218b36c1d19d4a2e9eb0ce3606eb4890508073ffffffffffffffffffffffffffffffffffffffff166370a08231846040518263ffffffff1660e01b8152600401611aa89190611c50565b602060405180830381865afa158015611ac5573d6000803e3d6000fd5b505050506040513d601f19601f82011682018060405250810190611ae9919061203c565b915050919050565b600073a0b86991c6218b36c1d19d4a2e9eb0ce3606eb4890508073ffffffffffffffffffffffffffffffffffffffff1663a9059cbb84846040518363ffffffff1660e01b8152600401611b4592919061220a565b6020604051808303816000875af1158015611b64573d6000803e3d6000fd5b505050506040513d601f19601f82011682018060405250810190611b88919061225f565b50505050565b6040518060e00160405280600073ffffffffffffffffffffffffffffffffffffffff168152602001600073ffffffffffffffffffffffffffffffffffffffff16815260200160008152602001600073ffffffffffffffffffffffffffffffffffffffff16815260200160008152602001600015158152602001600081525090565b600073ffffffffffffffffffffffffffffffffffffffff82169050919050565b6000611c3a82611c0f565b9050919050565b611c4a81611c2f565b82525050565b6000602082019050611c656000830184611c41565b92915050565b6000819050919050565b611c7e81611c6b565b82525050565b6000602082019050611c996000830184611c75565b92915050565b600080fd5b611cad81611c2f565b8114611cb857600080fd5b50565b600081359050611cca81611ca4565b92915050565b600060208284031215611ce657611ce5611c9f565b5b6000611cf484828501611cbb565b91505092915050565b611d0681611c6b565b8114611d1157600080fd5b50565b600081359050611d2381611cfd565b92915050565b600060208284031215611d3f57611d3e611c9f565b5b6000611d4d84828501611d14565b91505092915050565b60008060408385031215611d6d57611d6c611c9f565b5b6000611d7b85828601611cbb565b9250506020611d8c85828601611d14565b9150509250929050565b600080600080600060a08688031215611db257611db1611c9f565b5b6000611dc088828901611cbb565b9550506020611dd188828901611d14565b9450506040611de288828901611cbb565b9350506060611df388828901611d14565b9250506080611e0488828901611d14565b9150509295509295909350565b60008115159050919050565b611e2681611e11565b82525050565b600060e082019050611e41600083018a611c41565b611e4e6020830189611c41565b611e5b6040830188611c75565b611e686060830187611c41565b611e756080830186611c75565b611e8260a0830185611e1d565b611e8f60c0830184611c75565b98975050505050505050565b600081519050919050565b600082825260208201905092915050565b6000819050602082019050919050565b611ed081611c2f565b82525050565b611edf81611c6b565b82525050565b611eee81611e11565b82525050565b60e082016000820151611f0a6000850182611ec7565b506020820151611f1d6020850182611ec7565b506040820151611f306040850182611ed6565b506060820151611f436060850182611ec7565b506080820151611f566080850182611ed6565b5060a0820151611f6960a0850182611ee5565b5060c0820151611f7c60c0850182611ed6565b50505050565b6000611f8e8383611ef4565b60e08301905092915050565b6000602082019050919050565b6000611fb282611e9b565b611fbc8185611ea6565b9350611fc783611eb7565b8060005b83811015611ff8578151611fdf8882611f82565b9750611fea83611f9a565b925050600181019050611fcb565b5085935050505092915050565b6000602082019050818103600083015261201f8184611fa7565b905092915050565b60008151905061203681611cfd565b92915050565b60006020828403121561205257612051611c9f565b5b600061206084828501612027565b91505092915050565b600082825260208201905092915050565b7f4f7264657220697320616c726561647920636f6d706c65746564206f7220636160008201527f6e63656c6c656400000000000000000000000000000000000000000000000000602082015250565b60006120d6602783612069565b91506120e18261207a565b604082019050919050565b60006020820190508181036000830152612105816120c9565b9050919050565b7f4f7264657220686173206e6f7420657870697265642079657400000000000000600082015250565b6000612142601983612069565b915061214d8261210c565b602082019050919050565b6000602082019050818103600083015261217181612135565b9050919050565b7f4f6e6c7920746865206465706f7369746f722063616e2063616e63656c20746860008201527f6973206f72646572000000000000000000000000000000000000000000000000602082015250565b60006121d4602883612069565b91506121df82612178565b604082019050919050565b60006020820190508181036000830152612203816121c7565b9050919050565b600060408201905061221f6000830185611c41565b61222c6020830184611c75565b9392505050565b61223c81611e11565b811461224757600080fd5b50565b60008151905061225981612233565b92915050565b60006020828403121561227557612274611c9f565b5b60006122838482850161224a565b91505092915050565b7f546f6b656e207472616e73666572206661696c65640000000000000000000000600082015250565b60006122c2601583612069565b91506122cd8261228c565b602082019050919050565b600060208201905081810360008301526122f1816122b5565b9050919050565b7f4f7264657220697320616c726561647920636f6d706c65746564000000000000600082015250565b600061232e601a83612069565b9150612339826122f8565b602082019050919050565b6000602082019050818103600083015261235d81612321565b9050919050565b7f4f72646572206861732065787069726564000000000000000000000000000000600082015250565b600061239a601183612069565b91506123a582612364565b602082019050919050565b600060208201905081810360008301526123c98161238d565b9050919050565b60006040820190506123e56000830185611c41565b6123f26020830184611c41565b9392505050565b7f496e73756666696369656e7420746f6b656e20616c6c6f77616e636520666f7260008201527f206465736972656420746f6b656e000000000000000000000000000000000000602082015250565b6000612455602e83612069565b9150612460826123f9565b604082019050919050565b6000602082019050818103600083015261248481612448565b9050919050565b7f496e73756666696369656e7420746f6b656e2062616c616e636520666f72206460008201527f65736972656420746f6b656e0000000000000000000000000000000000000000602082015250565b60006124e7602c83612069565b91506124f28261248b565b604082019050919050565b60006020820190508181036000830152612516816124da565b9050919050565b60006060820190506125326000830186611c41565b61253f6020830185611c41565b61254c6040830184611c75565b949350505050565b7f546f6b656e207472616e7366657220286465736972656420746f6b656e29206660008201527f61696c6564000000000000000000000000000000000000000000000000000000602082015250565b60006125b0602583612069565b91506125bb82612554565b604082019050919050565b600060208201905081810360008301526125df816125a3565b9050919050565b7f546f6b656e207472616e7366657220286465706f73697420746f6b656e29206660008201527f61696c6564000000000000000000000000000000000000000000000000000000602082015250565b6000612642602583612069565b915061264d826125e6565b604082019050919050565b6000602082019050818103600083015261267181612635565b9050919050565b7f546f6b656e207472616e7366657220746f206465706f7369746f72206661696c60008201527f6564000000000000000000000000000000000000000000000000000000000000602082015250565b60006126d4602283612069565b91506126df82612678565b604082019050919050565b60006020820190508181036000830152612703816126c7565b9050919050565b600060808201905061271f6000830187611c41565b61272c6020830186611c75565b6127396040830185611c41565b6127466060830184611c75565b95945050505050565b7f4465736972656420616d6f756e74206d7573742062652067726561746572207460008201527f68616e207a65726f000000000000000000000000000000000000000000000000602082015250565b60006127ab602883612069565b91506127b68261274f565b604082019050919050565b600060208201905081810360008301526127da8161279e565b9050919050565b7f4465706f73697420616d6f756e74206d7573742062652067726561746572207460008201527f68616e207a65726f000000000000000000000000000000000000000000000000602082015250565b600061283d602883612069565b9150612848826127e1565b604082019050919050565b6000602082019050818103600083015261286c81612830565b9050919050565b7f4465706f73697420746f6b656e2063616e6e6f7420626520746865207a65726f60008201527f2061646472657373000000000000000000000000000000000000000000000000602082015250565b60006128cf602883612069565b91506128da82612873565b604082019050919050565b600060208201905081810360008301526128fe816128c2565b9050919050565b7f4465736972656420746f6b656e2063616e6e6f7420626520746865207a65726f60008201527f2061646472657373000000000000000000000000000000000000000000000000602082015250565b6000612961602883612069565b915061296c82612905565b604082019050919050565b6000602082019050818103600083015261299081612954565b9050919050565b7f4465706f73697420616e64206465736972656420746f6b656e73206d7573742060008201527f626520646966666572656e740000000000000000000000000000000000000000602082015250565b60006129f3602c83612069565b91506129fe82612997565b604082019050919050565b60006020820190508181036000830152612a22816129e6565b9050919050565b7f696e73756666696369656e742062616c616e6365000000000000000000000000600082015250565b6000612a5f601483612069565b9150612a6a82612a29565b602082019050919050565b60006020820190508181036000830152612a8e81612a52565b9050919050565b7f496e73756666696369656e7420746f6b656e20616c6c6f77616e636500000000600082015250565b6000612acb601c83612069565b9150612ad682612a95565b602082019050919050565b60006020820190508181036000830152612afa81612abe565b9050919050565b7f4475726174696f6e206d7573742062652067726561746572207468616e207a6560008201527f726f000000000000000000000000000000000000000000000000000000000000602082015250565b6000612b5d602283612069565b9150612b6882612b01565b604082019050919050565b60006020820190508181036000830152612b8c81612b50565b9050919050565b7f4e487b7100000000000000000000000000000000000000000000000000000000600052601160045260246000fd5b6000612bcd82611c6b565b91507fffffffffffffffffffffffffffffffffffffffffffffffffffffffffffffffff8203612bff57612bfe612b93565b5b600182019050919050565b6000612c1582611c6b565b9150612c2083611c6b565b9250828201905080821115612c3857612c37612b93565b5b92915050565b7f4e487b7100000000000000000000000000000000000000000000000000000000600052604160045260246000fd5b7f4e487b7100000000000000000000000000000000000000000000000000000000600052603260045260246000fdfea26469706673582212205def9a90359511805347bfc601d8fe4a505efc5a7c82c20229e46ef38e87d1dc64736f6c63430008180033",
  "linkReferences": {},
  "deployedLinkReferences": {}
}